{
  "_format": "hh-sol-artifact-1",
  "contractName": "BridgeLandERC721",
  "sourceName": "contracts/BridgeLandERC721.sol",
  "abi": [
    {
      "inputs": [
        {
          "internalType": "string",
          "name": "collectionName",
          "type": "string"
        },
        {
          "internalType": "string",
          "name": "collectionSymbol",
          "type": "string"
        },
        {
          "internalType": "string",
          "name": "_contractURI",
          "type": "string"
        },
        {
          "internalType": "uint96",
          "name": "_royaltyPercentage",
          "type": "uint96"
        },
        {
          "internalType": "address",
          "name": "_allowedMinter",
          "type": "address"
        },
        {
          "internalType": "address",
          "name": "_owner",
          "type": "address"
        }
      ],
      "stateMutability": "nonpayable",
      "type": "constructor"
    },
    {
      "anonymous": false,
      "inputs": [
        {
          "indexed": true,
          "internalType": "address",
          "name": "owner",
          "type": "address"
        },
        {
          "indexed": true,
          "internalType": "address",
          "name": "approved",
          "type": "address"
        },
        {
          "indexed": true,
          "internalType": "uint256",
          "name": "tokenId",
          "type": "uint256"
        }
      ],
      "name": "Approval",
      "type": "event"
    },
    {
      "anonymous": false,
      "inputs": [
        {
          "indexed": true,
          "internalType": "address",
          "name": "owner",
          "type": "address"
        },
        {
          "indexed": true,
          "internalType": "address",
          "name": "operator",
          "type": "address"
        },
        {
          "indexed": false,
          "internalType": "bool",
          "name": "approved",
          "type": "bool"
        }
      ],
      "name": "ApprovalForAll",
      "type": "event"
    },
    {
      "anonymous": false,
      "inputs": [
        {
          "indexed": true,
          "internalType": "address",
          "name": "previousOwner",
          "type": "address"
        },
        {
          "indexed": true,
          "internalType": "address",
          "name": "newOwner",
          "type": "address"
        }
      ],
      "name": "OwnershipTransferred",
      "type": "event"
    },
    {
      "anonymous": false,
      "inputs": [
        {
          "indexed": true,
          "internalType": "address",
          "name": "from",
          "type": "address"
        },
        {
          "indexed": true,
          "internalType": "address",
          "name": "to",
          "type": "address"
        },
        {
          "indexed": true,
          "internalType": "uint256",
          "name": "tokenId",
          "type": "uint256"
        }
      ],
      "name": "Transfer",
      "type": "event"
    },
    {
      "inputs": [],
      "name": "allowedMinter",
      "outputs": [
        {
          "internalType": "address",
          "name": "",
          "type": "address"
        }
      ],
      "stateMutability": "view",
      "type": "function"
    },
    {
      "inputs": [
        {
          "internalType": "address",
          "name": "to",
          "type": "address"
        },
        {
          "internalType": "uint256",
          "name": "tokenId",
          "type": "uint256"
        }
      ],
      "name": "approve",
      "outputs": [],
      "stateMutability": "nonpayable",
      "type": "function"
    },
    {
      "inputs": [
        {
          "internalType": "address",
          "name": "owner",
          "type": "address"
        }
      ],
      "name": "balanceOf",
      "outputs": [
        {
          "internalType": "uint256",
          "name": "",
          "type": "uint256"
        }
      ],
      "stateMutability": "view",
      "type": "function"
    },
    {
      "inputs": [
        {
          "internalType": "uint256",
          "name": "tokenId",
          "type": "uint256"
        }
      ],
      "name": "burn",
      "outputs": [],
      "stateMutability": "nonpayable",
      "type": "function"
    },
    {
      "inputs": [],
      "name": "contractURI",
      "outputs": [
        {
          "internalType": "string",
          "name": "",
          "type": "string"
        }
      ],
      "stateMutability": "view",
      "type": "function"
    },
    {
      "inputs": [],
      "name": "deleteDefaultRoyalty",
      "outputs": [],
      "stateMutability": "nonpayable",
      "type": "function"
    },
    {
      "inputs": [
        {
          "internalType": "uint256",
          "name": "tokenId",
          "type": "uint256"
        }
      ],
      "name": "getApproved",
      "outputs": [
        {
          "internalType": "address",
          "name": "",
          "type": "address"
        }
      ],
      "stateMutability": "view",
      "type": "function"
    },
    {
      "inputs": [
        {
          "internalType": "address",
          "name": "owner",
          "type": "address"
        },
        {
          "internalType": "address",
          "name": "operator",
          "type": "address"
        }
      ],
      "name": "isApprovedForAll",
      "outputs": [
        {
          "internalType": "bool",
          "name": "",
          "type": "bool"
        }
      ],
      "stateMutability": "view",
      "type": "function"
    },
    {
      "inputs": [],
      "name": "name",
      "outputs": [
        {
          "internalType": "string",
          "name": "",
          "type": "string"
        }
      ],
      "stateMutability": "view",
      "type": "function"
    },
    {
      "inputs": [],
      "name": "owner",
      "outputs": [
        {
          "internalType": "address",
          "name": "",
          "type": "address"
        }
      ],
      "stateMutability": "view",
      "type": "function"
    },
    {
      "inputs": [
        {
          "internalType": "uint256",
          "name": "tokenId",
          "type": "uint256"
        }
      ],
      "name": "ownerOf",
      "outputs": [
        {
          "internalType": "address",
          "name": "",
          "type": "address"
        }
      ],
      "stateMutability": "view",
      "type": "function"
    },
    {
      "inputs": [],
      "name": "renounceOwnership",
      "outputs": [],
      "stateMutability": "nonpayable",
      "type": "function"
    },
    {
      "inputs": [
        {
          "internalType": "uint256",
          "name": "tokenId",
          "type": "uint256"
        }
      ],
      "name": "resetTokenRoyalty",
      "outputs": [],
      "stateMutability": "nonpayable",
      "type": "function"
    },
    {
      "inputs": [
        {
          "internalType": "uint256",
          "name": "_tokenId",
          "type": "uint256"
        },
        {
          "internalType": "uint256",
          "name": "_salePrice",
          "type": "uint256"
        }
      ],
      "name": "royaltyInfo",
      "outputs": [
        {
          "internalType": "address",
          "name": "",
          "type": "address"
        },
        {
          "internalType": "uint256",
          "name": "",
          "type": "uint256"
        }
      ],
      "stateMutability": "view",
      "type": "function"
    },
    {
      "inputs": [
        {
          "internalType": "address",
          "name": "to",
          "type": "address"
        },
        {
          "internalType": "string[]",
          "name": "tokenURI_",
          "type": "string[]"
        }
      ],
      "name": "safeBatchMint",
      "outputs": [],
      "stateMutability": "nonpayable",
      "type": "function"
    },
    {
      "inputs": [
        {
          "internalType": "address",
          "name": "to",
          "type": "address"
        },
        {
          "internalType": "string",
          "name": "_tokenURI",
          "type": "string"
        }
      ],
      "name": "safeMint",
      "outputs": [],
      "stateMutability": "nonpayable",
      "type": "function"
    },
    {
      "inputs": [
        {
          "internalType": "address",
          "name": "from",
          "type": "address"
        },
        {
          "internalType": "address",
          "name": "to",
          "type": "address"
        },
        {
          "internalType": "uint256",
          "name": "tokenId",
          "type": "uint256"
        }
      ],
      "name": "safeTransferFrom",
      "outputs": [],
      "stateMutability": "nonpayable",
      "type": "function"
    },
    {
      "inputs": [
        {
          "internalType": "address",
          "name": "from",
          "type": "address"
        },
        {
          "internalType": "address",
          "name": "to",
          "type": "address"
        },
        {
          "internalType": "uint256",
          "name": "tokenId",
          "type": "uint256"
        },
        {
          "internalType": "bytes",
          "name": "data",
          "type": "bytes"
        }
      ],
      "name": "safeTransferFrom",
      "outputs": [],
      "stateMutability": "nonpayable",
      "type": "function"
    },
    {
      "inputs": [
        {
          "internalType": "address",
          "name": "_allowedMinter",
          "type": "address"
        }
      ],
      "name": "setAllowedMinter",
      "outputs": [],
      "stateMutability": "nonpayable",
      "type": "function"
    },
    {
      "inputs": [
        {
          "internalType": "address",
          "name": "operator",
          "type": "address"
        },
        {
          "internalType": "bool",
          "name": "approved",
          "type": "bool"
        }
      ],
      "name": "setApprovalForAll",
      "outputs": [],
      "stateMutability": "nonpayable",
      "type": "function"
    },
    {
      "inputs": [
        {
          "internalType": "string",
          "name": "_contractURI",
          "type": "string"
        }
      ],
      "name": "setContractURI",
      "outputs": [],
      "stateMutability": "nonpayable",
      "type": "function"
    },
    {
      "inputs": [
        {
          "internalType": "address",
          "name": "receiver",
          "type": "address"
        },
        {
          "internalType": "uint96",
          "name": "feeNumerator",
          "type": "uint96"
        }
      ],
      "name": "setDefaultRoyalty",
      "outputs": [],
      "stateMutability": "nonpayable",
      "type": "function"
    },
    {
      "inputs": [
        {
          "internalType": "uint256",
          "name": "tokenId",
          "type": "uint256"
        },
        {
          "internalType": "address",
          "name": "receiver",
          "type": "address"
        },
        {
          "internalType": "uint96",
          "name": "feeNumerator",
          "type": "uint96"
        }
      ],
      "name": "setTokenRoyalty",
      "outputs": [],
      "stateMutability": "nonpayable",
      "type": "function"
    },
    {
      "inputs": [
        {
          "internalType": "bytes4",
          "name": "interfaceId",
          "type": "bytes4"
        }
      ],
      "name": "supportsInterface",
      "outputs": [
        {
          "internalType": "bool",
          "name": "",
          "type": "bool"
        }
      ],
      "stateMutability": "view",
      "type": "function"
    },
    {
      "inputs": [],
      "name": "symbol",
      "outputs": [
        {
          "internalType": "string",
          "name": "",
          "type": "string"
        }
      ],
      "stateMutability": "view",
      "type": "function"
    },
    {
      "inputs": [
        {
          "internalType": "uint256",
          "name": "index",
          "type": "uint256"
        }
      ],
      "name": "tokenByIndex",
      "outputs": [
        {
          "internalType": "uint256",
          "name": "",
          "type": "uint256"
        }
      ],
      "stateMutability": "view",
      "type": "function"
    },
    {
      "inputs": [
        {
          "internalType": "address",
          "name": "owner",
          "type": "address"
        },
        {
          "internalType": "uint256",
          "name": "index",
          "type": "uint256"
        }
      ],
      "name": "tokenOfOwnerByIndex",
      "outputs": [
        {
          "internalType": "uint256",
          "name": "",
          "type": "uint256"
        }
      ],
      "stateMutability": "view",
      "type": "function"
    },
    {
      "inputs": [
        {
          "internalType": "uint256",
          "name": "tokenId",
          "type": "uint256"
        }
      ],
      "name": "tokenURI",
      "outputs": [
        {
          "internalType": "string",
          "name": "",
          "type": "string"
        }
      ],
      "stateMutability": "view",
      "type": "function"
    },
    {
      "inputs": [],
      "name": "totalSupply",
      "outputs": [
        {
          "internalType": "uint256",
          "name": "",
          "type": "uint256"
        }
      ],
      "stateMutability": "view",
      "type": "function"
    },
    {
      "inputs": [
        {
          "internalType": "address",
          "name": "from",
          "type": "address"
        },
        {
          "internalType": "address",
          "name": "to",
          "type": "address"
        },
        {
          "internalType": "uint256",
          "name": "tokenId",
          "type": "uint256"
        }
      ],
      "name": "transferFrom",
      "outputs": [],
      "stateMutability": "nonpayable",
      "type": "function"
    },
    {
      "inputs": [
        {
          "internalType": "address",
          "name": "newOwner",
          "type": "address"
        }
      ],
      "name": "transferOwnership",
      "outputs": [],
      "stateMutability": "nonpayable",
      "type": "function"
    }
  ],
  "bytecode": "0x60806040523480156200001157600080fd5b5060405162002b2d38038062002b2d833981016040819052620000349162000322565b8585600062000044838262000488565b50600162000053828262000488565b505050620000706200006a620000d460201b60201c565b620000d8565b600f80546001600160a01b0319166001600160a01b038416179055601062000099858262000488565b50620000a681846200012a565b620000b181620000d8565b620000c8600e6200022f60201b62000cf61760201c565b50505050505062000554565b3390565b600b80546001600160a01b038381166001600160a01b0319831681179093556040519116919082907f8be0079c531659141344cd1fd0a4f28419497f9722a3daafe3b4186f6b6457e090600090a35050565b6127106001600160601b03821611156200019e5760405162461bcd60e51b815260206004820152602a60248201527f455243323938313a20726f79616c7479206665652077696c6c206578636565646044820152692073616c65507269636560b01b60648201526084015b60405180910390fd5b6001600160a01b038216620001f65760405162461bcd60e51b815260206004820152601960248201527f455243323938313a20696e76616c696420726563656976657200000000000000604482015260640162000195565b604080518082019091526001600160a01b039092168083526001600160601b039091166020909201829052600160a01b90910217600c55565b80546001019055565b634e487b7160e01b600052604160045260246000fd5b600082601f8301126200026057600080fd5b81516001600160401b03808211156200027d576200027d62000238565b604051601f8301601f19908116603f01168101908282118183101715620002a857620002a862000238565b81604052838152602092508683858801011115620002c557600080fd5b600091505b83821015620002e95785820183015181830184015290820190620002ca565b83821115620002fb5760008385830101525b9695505050505050565b80516001600160a01b03811681146200031d57600080fd5b919050565b60008060008060008060c087890312156200033c57600080fd5b86516001600160401b03808211156200035457600080fd5b620003628a838b016200024e565b975060208901519150808211156200037957600080fd5b620003878a838b016200024e565b965060408901519150808211156200039e57600080fd5b50620003ad89828a016200024e565b606089015190955090506001600160601b0381168114620003cd57600080fd5b9250620003dd6080880162000305565b9150620003ed60a0880162000305565b90509295509295509295565b600181811c908216806200040e57607f821691505b6020821081036200042f57634e487b7160e01b600052602260045260246000fd5b50919050565b601f8211156200048357600081815260208120601f850160051c810160208610156200045e5750805b601f850160051c820191505b818110156200047f578281556001016200046a565b5050505b505050565b81516001600160401b03811115620004a457620004a462000238565b620004bc81620004b58454620003f9565b8462000435565b602080601f831160018114620004f45760008415620004db5750858301515b600019600386901b1c1916600185901b1785556200047f565b600085815260208120601f198616915b82811015620005255788860151825594840194600190910190840162000504565b5085821015620005445787850151600019600388901b60f8161c191681555b5050505050600190811b01905550565b6125c980620005646000396000f3fe608060405234801561001057600080fd5b50600436106101e55760003560e01c806370a082311161010f578063aa1b103f116100a2578063d204c45e11610071578063d204c45e14610417578063e8a3d4851461042a578063e985e9c514610432578063f2fde38b1461046e57600080fd5b8063aa1b103f146103d6578063b88d4fde146103de578063c87b56dd146103f1578063d01cc6181461040457600080fd5b8063938e3d7b116100de578063938e3d7b1461039557806395d89b41146103a85780639e812c7b146103b0578063a22cb465146103c357600080fd5b806370a0823114610356578063715018a6146103695780638a616bc0146103715780638da5cb5b1461038457600080fd5b80632a55205a116101875780634f6ccce7116101565780634f6ccce71461030a57806358dd6d951461031d5780635944c753146103305780636352211e1461034357600080fd5b80632a55205a1461029f5780632f745c59146102d157806342842e0e146102e457806342966c68146102f757600080fd5b8063081812fc116101c3578063081812fc1461023c578063095ea7b31461026757806318160ddd1461027a57806323b872dd1461028c57600080fd5b806301ffc9a7146101ea57806304634d8d1461021257806306fdde0314610227575b600080fd5b6101fd6101f8366004611d11565b610481565b60405190151581526020015b60405180910390f35b610225610220366004611d61565b610492565b005b61022f6104a8565b6040516102099190611dec565b61024f61024a366004611dff565b61053a565b6040516001600160a01b039091168152602001610209565b610225610275366004611e18565b610561565b6008545b604051908152602001610209565b61022561029a366004611e42565b61067b565b6102b26102ad366004611e7e565b6106ad565b604080516001600160a01b039093168352602083019190915201610209565b61027e6102df366004611e18565b610759565b6102256102f2366004611e42565b6107ef565b610225610305366004611dff565b61080a565b61027e610318366004611dff565b61083b565b61022561032b366004611f5f565b6108ce565b61022561033e366004612035565b610a1b565b61024f610351366004611dff565b610a2e565b61027e610364366004612071565b610a8e565b610225610b14565b61022561037f366004611dff565b610b28565b600b546001600160a01b031661024f565b6102256103a336600461208c565b610b41565b61022f610b55565b600f5461024f906001600160a01b031681565b6102256103d13660046120c1565b610b64565b610225610b6f565b6102256103ec3660046120fd565b610b81565b61022f6103ff366004611dff565b610bb3565b610225610412366004612071565b610bbe565b610225610425366004612179565b610be8565b61022f610c71565b6101fd6104403660046121c7565b6001600160a01b03918216600090815260056020908152604080832093909416825291909152205460ff1690565b61022561047c366004612071565b610c80565b600061048c82610cff565b92915050565b61049a610d24565b6104a48282610d7e565b5050565b6060600080546104b7906121f1565b80601f01602080910402602001604051908101604052809291908181526020018280546104e3906121f1565b80156105305780601f1061050557610100808354040283529160200191610530565b820191906000526020600020905b81548152906001019060200180831161051357829003601f168201915b5050505050905090565b600061054582610e38565b506000908152600460205260409020546001600160a01b031690565b600061056c82610a2e565b9050806001600160a01b0316836001600160a01b0316036105de5760405162461bcd60e51b815260206004820152602160248201527f4552433732313a20617070726f76616c20746f2063757272656e74206f776e656044820152603960f91b60648201526084015b60405180910390fd5b336001600160a01b03821614806105fa57506105fa8133610440565b61066c5760405162461bcd60e51b815260206004820152603e60248201527f4552433732313a20617070726f76652063616c6c6572206973206e6f7420746f60448201527f6b656e206f776e6572206e6f7220617070726f76656420666f7220616c6c000060648201526084016105d5565b6106768383610e97565b505050565b610686335b82610f05565b6106a25760405162461bcd60e51b81526004016105d59061222b565b610676838383610f84565b6000828152600d602090815260408083208151808301909252546001600160a01b038116808352600160a01b9091046001600160601b0316928201929092528291610722575060408051808201909152600c546001600160a01b0381168252600160a01b90046001600160601b031660208201525b602081015160009061271090610741906001600160601b03168761228f565b61074b91906122c4565b915196919550909350505050565b600061076483610a8e565b82106107c65760405162461bcd60e51b815260206004820152602b60248201527f455243373231456e756d657261626c653a206f776e657220696e646578206f7560448201526a74206f6620626f756e647360a81b60648201526084016105d5565b506001600160a01b03919091166000908152600660209081526040808320938352929052205490565b61067683838360405180602001604052806000815250610b81565b61081333610680565b61082f5760405162461bcd60e51b81526004016105d59061222b565b6108388161112b565b50565b600061084660085490565b82106108a95760405162461bcd60e51b815260206004820152602c60248201527f455243373231456e756d657261626c653a20676c6f62616c20696e646578206f60448201526b7574206f6620626f756e647360a01b60648201526084016105d5565b600882815481106108bc576108bc6122d8565b90600052602060002001549050919050565b600f546001600160a01b031633146109285760405162461bcd60e51b815260206004820152601c60248201527f4f6e6c7920616c6c6f776564206d696e7465722063616e206d696e740000000060448201526064016105d5565b8051806109685760405162461bcd60e51b815260206004820152600e60248201526d417272617920697320656d70747960901b60448201526064016105d5565b60328111156109b95760405162461bcd60e51b815260206004820152601a60248201527f5174792065786365656473204d61782061727261792073697a6500000000000060448201526064016105d5565b60005b81811015610a155760006109cf600e5490565b90506109db8582611134565b6109fe818584815181106109f1576109f16122d8565b602002602001015161114e565b610a0c600e80546001019055565b506001016109bc565b50505050565b610a23610d24565b6106768383836111e1565b6000818152600260205260408120546001600160a01b03168061048c5760405162461bcd60e51b8152602060048201526018602482015277115490cdcc8c4e881a5b9d985b1a59081d1bdad95b88125160421b60448201526064016105d5565b60006001600160a01b038216610af85760405162461bcd60e51b815260206004820152602960248201527f4552433732313a2061646472657373207a65726f206973206e6f7420612076616044820152683634b21037bbb732b960b91b60648201526084016105d5565b506001600160a01b031660009081526003602052604090205490565b610b1c610d24565b610b2660006112ac565b565b610b30610d24565b6000908152600d6020526040812055565b610b49610d24565b60106104a4828261233c565b6060600180546104b7906121f1565b6104a43383836112fe565b610b77610d24565b610b266000600c55565b610b8b3383610f05565b610ba75760405162461bcd60e51b81526004016105d59061222b565b610a15848484846113cc565b606061048c826113ff565b610bc6610d24565b600f80546001600160a01b0319166001600160a01b0392909216919091179055565b600f546001600160a01b03163314610c425760405162461bcd60e51b815260206004820152601c60248201527f4f6e6c7920616c6c6f776564206d696e7465722063616e206d696e740000000060448201526064016105d5565b6000610c4d600e5490565b9050610c598382611134565b610c63818361114e565b610676600e80546001019055565b6060601080546104b7906121f1565b610c88610d24565b6001600160a01b038116610ced5760405162461bcd60e51b815260206004820152602660248201527f4f776e61626c653a206e6577206f776e657220697320746865207a65726f206160448201526564647265737360d01b60648201526084016105d5565b610838816112ac565b80546001019055565b60006001600160e01b0319821663152a902d60e11b148061048c575061048c82611507565b600b546001600160a01b03163314610b265760405162461bcd60e51b815260206004820181905260248201527f4f776e61626c653a2063616c6c6572206973206e6f7420746865206f776e657260448201526064016105d5565b6127106001600160601b0382161115610da95760405162461bcd60e51b81526004016105d5906123fc565b6001600160a01b038216610dff5760405162461bcd60e51b815260206004820152601960248201527f455243323938313a20696e76616c69642072656365697665720000000000000060448201526064016105d5565b604080518082019091526001600160a01b039092168083526001600160601b039091166020909201829052600160a01b90910217600c55565b6000818152600260205260409020546001600160a01b03166108385760405162461bcd60e51b8152602060048201526018602482015277115490cdcc8c4e881a5b9d985b1a59081d1bdad95b88125160421b60448201526064016105d5565b600081815260046020526040902080546001600160a01b0319166001600160a01b0384169081179091558190610ecc82610a2e565b6001600160a01b03167f8c5be1e5ebec7d5bd14f71427d1e84f3dd0314c0f7b2291e5b200ac8c7c3b92560405160405180910390a45050565b600080610f1183610a2e565b9050806001600160a01b0316846001600160a01b03161480610f5857506001600160a01b0380821660009081526005602090815260408083209388168352929052205460ff165b80610f7c5750836001600160a01b0316610f718461053a565b6001600160a01b0316145b949350505050565b826001600160a01b0316610f9782610a2e565b6001600160a01b031614610ffb5760405162461bcd60e51b815260206004820152602560248201527f4552433732313a207472616e736665722066726f6d20696e636f72726563742060448201526437bbb732b960d91b60648201526084016105d5565b6001600160a01b03821661105d5760405162461bcd60e51b8152602060048201526024808201527f4552433732313a207472616e7366657220746f20746865207a65726f206164646044820152637265737360e01b60648201526084016105d5565b61106883838361152c565b611073600082610e97565b6001600160a01b038316600090815260036020526040812080546001929061109c908490612446565b90915550506001600160a01b03821660009081526003602052604081208054600192906110ca90849061245d565b909155505060008181526002602052604080822080546001600160a01b0319166001600160a01b0386811691821790925591518493918716917fddf252ad1be2c89b69c2b068fc378daa952ba7f163c4a11628f55a4df523b3ef91a4505050565b61083881611537565b6104a4828260405180602001604052806000815250611577565b6000828152600260205260409020546001600160a01b03166111c95760405162461bcd60e51b815260206004820152602e60248201527f45524337323155524953746f726167653a2055524920736574206f66206e6f6e60448201526d32bc34b9ba32b73a103a37b5b2b760911b60648201526084016105d5565b6000828152600a60205260409020610676828261233c565b6127106001600160601b038216111561120c5760405162461bcd60e51b81526004016105d5906123fc565b6001600160a01b0382166112625760405162461bcd60e51b815260206004820152601b60248201527f455243323938313a20496e76616c696420706172616d6574657273000000000060448201526064016105d5565b6040805180820182526001600160a01b0393841681526001600160601b0392831660208083019182526000968752600d90529190942093519051909116600160a01b029116179055565b600b80546001600160a01b038381166001600160a01b0319831681179093556040519116919082907f8be0079c531659141344cd1fd0a4f28419497f9722a3daafe3b4186f6b6457e090600090a35050565b816001600160a01b0316836001600160a01b03160361135f5760405162461bcd60e51b815260206004820152601960248201527f4552433732313a20617070726f766520746f2063616c6c65720000000000000060448201526064016105d5565b6001600160a01b03838116600081815260056020908152604080832094871680845294825291829020805460ff191686151590811790915591519182527f17307eab39ab6107e8899845ad3d59bd9653f200f220920489ca2b5937696c31910160405180910390a3505050565b6113d7848484610f84565b6113e3848484846115aa565b610a155760405162461bcd60e51b81526004016105d590612475565b606061140a82610e38565b6000828152600a602052604081208054611423906121f1565b80601f016020809104026020016040519081016040528092919081815260200182805461144f906121f1565b801561149c5780601f106114715761010080835404028352916020019161149c565b820191906000526020600020905b81548152906001019060200180831161147f57829003601f168201915b5050505050905060006114ba60408051602081019091526000815290565b905080516000036114cc575092915050565b8151156114fe5780826040516020016114e69291906124c7565b60405160208183030381529060405292505050919050565b610f7c846116ab565b60006001600160e01b0319821663780e9d6360e01b148061048c575061048c8261171f565b61067683838361176f565b61154081611827565b6000818152600a602052604090208054611559906121f1565b159050610838576000818152600a6020526040812061083891611cad565b61158183836118ce565b61158e60008484846115aa565b6106765760405162461bcd60e51b81526004016105d590612475565b60006001600160a01b0384163b156116a057604051630a85bd0160e11b81526001600160a01b0385169063150b7a02906115ee9033908990889088906004016124f6565b6020604051808303816000875af1925050508015611629575060408051601f3d908101601f1916820190925261162691810190612533565b60015b611686573d808015611657576040519150601f19603f3d011682016040523d82523d6000602084013e61165c565b606091505b50805160000361167e5760405162461bcd60e51b81526004016105d590612475565b805181602001fd5b6001600160e01b031916630a85bd0160e11b149050610f7c565b506001949350505050565b60606116b682610e38565b60006116cd60408051602081019091526000815290565b905060008151116116ed5760405180602001604052806000815250611718565b806116f784611a1c565b6040516020016117089291906124c7565b6040516020818303038152906040525b9392505050565b60006001600160e01b031982166380ac58cd60e01b148061175057506001600160e01b03198216635b5e139f60e01b145b8061048c57506301ffc9a760e01b6001600160e01b031983161461048c565b6001600160a01b0383166117ca576117c581600880546000838152600960205260408120829055600182018355919091527ff3f7a9fe364faab93b216da50a3214154f22a0a2b415b23a84c8169e8b636ee30155565b6117ed565b816001600160a01b0316836001600160a01b0316146117ed576117ed8382611b1d565b6001600160a01b0382166118045761067681611bba565b826001600160a01b0316826001600160a01b031614610676576106768282611c69565b600061183282610a2e565b90506118408160008461152c565b61184b600083610e97565b6001600160a01b0381166000908152600360205260408120805460019290611874908490612446565b909155505060008281526002602052604080822080546001600160a01b0319169055518391906001600160a01b038416907fddf252ad1be2c89b69c2b068fc378daa952ba7f163c4a11628f55a4df523b3ef908390a45050565b6001600160a01b0382166119245760405162461bcd60e51b815260206004820181905260248201527f4552433732313a206d696e7420746f20746865207a65726f206164647265737360448201526064016105d5565b6000818152600260205260409020546001600160a01b0316156119895760405162461bcd60e51b815260206004820152601c60248201527f4552433732313a20746f6b656e20616c7265616479206d696e7465640000000060448201526064016105d5565b6119956000838361152c565b6001600160a01b03821660009081526003602052604081208054600192906119be90849061245d565b909155505060008181526002602052604080822080546001600160a01b0319166001600160a01b03861690811790915590518392907fddf252ad1be2c89b69c2b068fc378daa952ba7f163c4a11628f55a4df523b3ef908290a45050565b606081600003611a435750506040805180820190915260018152600360fc1b602082015290565b8160005b8115611a6d5780611a5781612550565b9150611a669050600a836122c4565b9150611a47565b60008167ffffffffffffffff811115611a8857611a88611ea0565b6040519080825280601f01601f191660200182016040528015611ab2576020820181803683370190505b5090505b8415610f7c57611ac7600183612446565b9150611ad4600a86612569565b611adf90603061245d565b60f81b818381518110611af457611af46122d8565b60200101906001600160f81b031916908160001a905350611b16600a866122c4565b9450611ab6565b60006001611b2a84610a8e565b611b349190612446565b600083815260076020526040902054909150808214611b87576001600160a01b03841660009081526006602090815260408083208584528252808320548484528184208190558352600790915290208190555b5060009182526007602090815260408084208490556001600160a01b039094168352600681528383209183525290812055565b600854600090611bcc90600190612446565b60008381526009602052604081205460088054939450909284908110611bf457611bf46122d8565b906000526020600020015490508060088381548110611c1557611c156122d8565b6000918252602080832090910192909255828152600990915260408082208490558582528120556008805480611c4d57611c4d61257d565b6001900381819060005260206000200160009055905550505050565b6000611c7483610a8e565b6001600160a01b039093166000908152600660209081526040808320868452825280832085905593825260079052919091209190915550565b508054611cb9906121f1565b6000825580601f10611cc9575050565b601f01602090049060005260206000209081019061083891905b80821115611cf75760008155600101611ce3565b5090565b6001600160e01b03198116811461083857600080fd5b600060208284031215611d2357600080fd5b813561171881611cfb565b80356001600160a01b0381168114611d4557600080fd5b919050565b80356001600160601b0381168114611d4557600080fd5b60008060408385031215611d7457600080fd5b611d7d83611d2e565b9150611d8b60208401611d4a565b90509250929050565b60005b83811015611daf578181015183820152602001611d97565b83811115610a155750506000910152565b60008151808452611dd8816020860160208601611d94565b601f01601f19169290920160200192915050565b6020815260006117186020830184611dc0565b600060208284031215611e1157600080fd5b5035919050565b60008060408385031215611e2b57600080fd5b611e3483611d2e565b946020939093013593505050565b600080600060608486031215611e5757600080fd5b611e6084611d2e565b9250611e6e60208501611d2e565b9150604084013590509250925092565b60008060408385031215611e9157600080fd5b50508035926020909101359150565b634e487b7160e01b600052604160045260246000fd5b604051601f8201601f1916810167ffffffffffffffff81118282101715611edf57611edf611ea0565b604052919050565b600067ffffffffffffffff831115611f0157611f01611ea0565b611f14601f8401601f1916602001611eb6565b9050828152838383011115611f2857600080fd5b828260208301376000602084830101529392505050565b600082601f830112611f5057600080fd5b61171883833560208501611ee7565b60008060408385031215611f7257600080fd5b611f7b83611d2e565b915060208084013567ffffffffffffffff80821115611f9957600080fd5b818601915086601f830112611fad57600080fd5b813581811115611fbf57611fbf611ea0565b8060051b611fce858201611eb6565b918252838101850191858101908a841115611fe857600080fd5b86860192505b83831015612024578235858111156120065760008081fd5b6120148c89838a0101611f3f565b8352509186019190860190611fee565b809750505050505050509250929050565b60008060006060848603121561204a57600080fd5b8335925061205a60208501611d2e565b915061206860408501611d4a565b90509250925092565b60006020828403121561208357600080fd5b61171882611d2e565b60006020828403121561209e57600080fd5b813567ffffffffffffffff8111156120b557600080fd5b610f7c84828501611f3f565b600080604083850312156120d457600080fd5b6120dd83611d2e565b9150602083013580151581146120f257600080fd5b809150509250929050565b6000806000806080858703121561211357600080fd5b61211c85611d2e565b935061212a60208601611d2e565b925060408501359150606085013567ffffffffffffffff81111561214d57600080fd5b8501601f8101871361215e57600080fd5b61216d87823560208401611ee7565b91505092959194509250565b6000806040838503121561218c57600080fd5b61219583611d2e565b9150602083013567ffffffffffffffff8111156121b157600080fd5b6121bd85828601611f3f565b9150509250929050565b600080604083850312156121da57600080fd5b6121e383611d2e565b9150611d8b60208401611d2e565b600181811c9082168061220557607f821691505b60208210810361222557634e487b7160e01b600052602260045260246000fd5b50919050565b6020808252602e908201527f4552433732313a2063616c6c6572206973206e6f7420746f6b656e206f776e6560408201526d1c881b9bdc88185c1c1c9bdd995960921b606082015260800190565b634e487b7160e01b600052601160045260246000fd5b60008160001904831182151516156122a9576122a9612279565b500290565b634e487b7160e01b600052601260045260246000fd5b6000826122d3576122d36122ae565b500490565b634e487b7160e01b600052603260045260246000fd5b601f82111561067657600081815260208120601f850160051c810160208610156123155750805b601f850160051c820191505b8181101561233457828155600101612321565b505050505050565b815167ffffffffffffffff81111561235657612356611ea0565b61236a8161236484546121f1565b846122ee565b602080601f83116001811461239f57600084156123875750858301515b600019600386901b1c1916600185901b178555612334565b600085815260208120601f198616915b828110156123ce578886015182559484019460019091019084016123af565b50858210156123ec5787850151600019600388901b60f8161c191681555b5050505050600190811b01905550565b6020808252602a908201527f455243323938313a20726f79616c7479206665652077696c6c206578636565646040820152692073616c65507269636560b01b606082015260800190565b60008282101561245857612458612279565b500390565b6000821982111561247057612470612279565b500190565b60208082526032908201527f4552433732313a207472616e7366657220746f206e6f6e20455243373231526560408201527131b2b4bb32b91034b6b83632b6b2b73a32b960711b606082015260800190565b600083516124d9818460208801611d94565b8351908301906124ed818360208801611d94565b01949350505050565b6001600160a01b038581168252841660208201526040810183905260806060820181905260009061252990830184611dc0565b9695505050505050565b60006020828403121561254557600080fd5b815161171881611cfb565b60006001820161256257612562612279565b5060010190565b600082612578576125786122ae565b500690565b634e487b7160e01b600052603160045260246000fdfea26469706673582212206825ad00edbe460cf1f0ec88ae29e31e513167e40f53a15be2c26144935075bc64736f6c634300080f0033",
  "linkReferences": {},
  "deployedLinkReferences": {}
}