{
  "_format": "hh-sol-artifact-1",
  "contractName": "LockHolder",
  "sourceName": "contracts/LockHolder.sol",
  "abi": [
    {
      "inputs": [
        {
          "internalType": "address",
          "name": "relay",
          "type": "address"
        },
        {
          "internalType": "address",
          "name": "owner",
          "type": "address"
        },
        {
          "internalType": "address",
          "name": "payment",
          "type": "address"
        }
      ],
      "stateMutability": "nonpayable",
      "type": "constructor"
    },
    {
      "anonymous": false,
      "inputs": [
        {
          "indexed": true,
          "internalType": "address",
          "name": "collection",
          "type": "address"
        },
        {
          "indexed": true,
          "internalType": "uint256[]",
          "name": "tokenIds",
          "type": "uint256[]"
        },
        {
          "indexed": true,
          "internalType": "address",
          "name": "owner",
          "type": "address"
        },
        {
          "indexed": false,
          "internalType": "string",
          "name": "targetCollection",
          "type": "string"
        },
        {
          "indexed": false,
          "internalType": "string",
          "name": "targetOwner",
          "type": "string"
        }
      ],
      "name": "Lock",
      "type": "event"
    },
    {
      "anonymous": false,
      "inputs": [
        {
          "indexed": true,
          "internalType": "address",
          "name": "previousOwner",
          "type": "address"
        },
        {
          "indexed": true,
          "internalType": "address",
          "name": "newOwner",
          "type": "address"
        }
      ],
      "name": "OwnershipTransferred",
      "type": "event"
    },
    {
      "inputs": [],
      "name": "_payment",
      "outputs": [
        {
          "internalType": "address",
          "name": "",
          "type": "address"
        }
      ],
      "stateMutability": "view",
      "type": "function"
    },
    {
      "inputs": [],
      "name": "_relay",
      "outputs": [
        {
          "internalType": "address",
          "name": "",
          "type": "address"
        }
      ],
      "stateMutability": "view",
      "type": "function"
    },
    {
      "inputs": [
        {
          "internalType": "address",
          "name": "collection",
          "type": "address"
        },
        {
          "internalType": "uint256[]",
          "name": "tokenIds",
          "type": "uint256[]"
        },
        {
          "internalType": "string",
          "name": "targetCollection",
          "type": "string"
        },
        {
          "internalType": "string",
          "name": "targetOwner",
          "type": "string"
        }
      ],
      "name": "lock",
      "outputs": [],
      "stateMutability": "payable",
      "type": "function"
    },
    {
      "inputs": [
        {
          "internalType": "address",
          "name": "collection",
          "type": "address"
        },
        {
          "internalType": "uint256",
          "name": "tokenId",
          "type": "uint256"
        }
      ],
      "name": "lockedBy",
      "outputs": [
        {
          "internalType": "address",
          "name": "",
          "type": "address"
        }
      ],
      "stateMutability": "view",
      "type": "function"
    },
    {
      "inputs": [],
      "name": "owner",
      "outputs": [
        {
          "internalType": "address",
          "name": "",
          "type": "address"
        }
      ],
      "stateMutability": "view",
      "type": "function"
    },
    {
      "inputs": [],
      "name": "renounceOwnership",
      "outputs": [],
      "stateMutability": "nonpayable",
      "type": "function"
    },
    {
      "inputs": [
        {
          "internalType": "address",
          "name": "relay",
          "type": "address"
        }
      ],
      "name": "setLocker",
      "outputs": [],
      "stateMutability": "nonpayable",
      "type": "function"
    },
    {
      "inputs": [
        {
          "internalType": "address",
          "name": "payment",
          "type": "address"
        }
      ],
      "name": "setPayment",
      "outputs": [],
      "stateMutability": "nonpayable",
      "type": "function"
    },
    {
      "inputs": [
        {
          "internalType": "address",
          "name": "newOwner",
          "type": "address"
        }
      ],
      "name": "transferOwnership",
      "outputs": [],
      "stateMutability": "nonpayable",
      "type": "function"
    },
    {
      "inputs": [
        {
          "internalType": "address",
          "name": "collection",
          "type": "address"
        },
        {
          "internalType": "address",
          "name": "owner",
          "type": "address"
        },
        {
          "internalType": "uint256[]",
          "name": "tokenIds",
          "type": "uint256[]"
        }
      ],
      "name": "unlock",
      "outputs": [],
      "stateMutability": "nonpayable",
      "type": "function"
    }
  ],
  "bytecode": "0x608060405234801561001057600080fd5b50604051610c2c380380610c2c83398101604081905261002f916100e5565b61003833610079565b600280546001600160a01b038086166001600160a01b031992831617909255600380549284169290911691909117905561007182610079565b505050610128565b600080546001600160a01b038381166001600160a01b0319831681178455604051919092169283917f8be0079c531659141344cd1fd0a4f28419497f9722a3daafe3b4186f6b6457e09190a35050565b80516001600160a01b03811681146100e057600080fd5b919050565b6000806000606084860312156100fa57600080fd5b610103846100c9565b9250610111602085016100c9565b915061011f604085016100c9565b90509250925092565b610af5806101376000396000f3fe6080604052600436106100915760003560e01c80639522b19d116100595780639522b19d146101475780639ab06fcb1461018a578063ed9ecdd0146101aa578063f0b54c18146101ca578063f2fde38b146101dd57600080fd5b8063171060ec14610096578063290ab922146100b8578063319cdcdf146100f4578063715018a6146101145780638da5cb5b14610129575b600080fd5b3480156100a257600080fd5b506100b66100b13660046107b3565b6101fd565b005b3480156100c457600080fd5b506002546100d8906001600160a01b031681565b6040516001600160a01b03909116815260200160405180910390f35b34801561010057600080fd5b506100b661010f366004610886565b610227565b34801561012057600080fd5b506100b6610447565b34801561013557600080fd5b506000546001600160a01b03166100d8565b34801561015357600080fd5b506100d86101623660046108e4565b6001600160a01b03918216600090815260016020908152604080832093835292905220541690565b34801561019657600080fd5b506100b66101a53660046107b3565b61045b565b3480156101b657600080fd5b506003546100d8906001600160a01b031681565b6100b66101d8366004610957565b610485565b3480156101e957600080fd5b506100b66101f83660046107b3565b610674565b6102056106ed565b600280546001600160a01b0319166001600160a01b0392909216919091179055565b6002546001600160a01b031633146102865760405162461bcd60e51b815260206004820152601e60248201527f4c6f636b486f6c6465723a2063616c6c6572206e6f7420616c6c6f776564000060448201526064015b60405180910390fd5b60005b8151811015610441576001600160a01b0384166000908152600160205260408120835182908590859081106102c0576102c06109fc565b6020908102919091018101518252810191909152604001600020546001600160a01b0316036103315760405162461bcd60e51b815260206004820152601e60248201527f546f6b656e206e6f74206c6f636b656420666f7220756e6c6f636b696e670000604482015260640161027d565b6001600160a01b03841660009081526001602052604081208351829085908590811061035f5761035f6109fc565b6020026020010151815260200190815260200160002060006101000a8154816001600160a01b0302191690836001600160a01b03160217905550836001600160a01b03166323b872dd30858585815181106103bc576103bc6109fc565b60209081029190910101516040516001600160e01b031960e086901b1681526001600160a01b0393841660048201529290911660248301526044820152606401600060405180830381600087803b15801561041657600080fd5b505af115801561042a573d6000803e3d6000fd5b50505050808061043990610a12565b915050610289565b50505050565b61044f6106ed565b6104596000610747565b565b6104636106ed565b600380546001600160a01b0319166001600160a01b0392909216919091179055565b60005b85518110156105a2576001600160a01b038716600090815260016020526040812087513392908990859081106104c0576104c06109fc565b6020026020010151815260200190815260200160002060006101000a8154816001600160a01b0302191690836001600160a01b03160217905550866001600160a01b03166323b872dd333089858151811061051d5761051d6109fc565b60209081029190910101516040516001600160e01b031960e086901b1681526001600160a01b0393841660048201529290911660248301526044820152606401600060405180830381600087803b15801561057757600080fd5b505af115801561058b573d6000803e3d6000fd5b50505050808061059a90610a12565b915050610488565b5060035485516040516385bac23760e01b81526001600160a01b03898116600483015260248201929092529116906385bac2379034906044016000604051808303818588803b1580156105f457600080fd5b505af1158015610608573d6000803e3d6000fd5b505060405133935061061d9250889150610a39565b6040518091039020876001600160a01b03167f450089c2dfc304f2a5d08c0f0a04de1c1fc2456a8e56b71939f5bd0a6a7df22b878787876040516106649493929190610a98565b60405180910390a4505050505050565b61067c6106ed565b6001600160a01b0381166106e15760405162461bcd60e51b815260206004820152602660248201527f4f776e61626c653a206e6577206f776e657220697320746865207a65726f206160448201526564647265737360d01b606482015260840161027d565b6106ea81610747565b50565b6000546001600160a01b031633146104595760405162461bcd60e51b815260206004820181905260248201527f4f776e61626c653a2063616c6c6572206973206e6f7420746865206f776e6572604482015260640161027d565b600080546001600160a01b038381166001600160a01b0319831681178455604051919092169283917f8be0079c531659141344cd1fd0a4f28419497f9722a3daafe3b4186f6b6457e09190a35050565b80356001600160a01b03811681146107ae57600080fd5b919050565b6000602082840312156107c557600080fd5b6107ce82610797565b9392505050565b634e487b7160e01b600052604160045260246000fd5b600082601f8301126107fc57600080fd5b8135602067ffffffffffffffff80831115610819576108196107d5565b8260051b604051601f19603f8301168101818110848211171561083e5761083e6107d5565b60405293845285810183019383810192508785111561085c57600080fd5b83870191505b8482101561087b57813583529183019190830190610862565b979650505050505050565b60008060006060848603121561089b57600080fd5b6108a484610797565b92506108b260208501610797565b9150604084013567ffffffffffffffff8111156108ce57600080fd5b6108da868287016107eb565b9150509250925092565b600080604083850312156108f757600080fd5b61090083610797565b946020939093013593505050565b60008083601f84011261092057600080fd5b50813567ffffffffffffffff81111561093857600080fd5b60208301915083602082850101111561095057600080fd5b9250929050565b6000806000806000806080878903121561097057600080fd5b61097987610797565b9550602087013567ffffffffffffffff8082111561099657600080fd5b6109a28a838b016107eb565b965060408901359150808211156109b857600080fd5b6109c48a838b0161090e565b909650945060608901359150808211156109dd57600080fd5b506109ea89828a0161090e565b979a9699509497509295939492505050565b634e487b7160e01b600052603260045260246000fd5b600060018201610a3257634e487b7160e01b600052601160045260246000fd5b5060010190565b815160009082906020808601845b83811015610a6357815185529382019390820190600101610a47565b50929695505050505050565b81835281816020850137506000828201602090810191909152601f909101601f19169091010190565b604081526000610aac604083018688610a6f565b828103602084015261087b818587610a6f56fea264697066735822122013d1b1c3cccd5b588ca703fb5d3bd596fd4399f55580d58a796ae77eeb93c46f64736f6c634300080f0033",
  "linkReferences": {},
  "deployedLinkReferences": {}
}